:10F000000C945D780C942A7A0C946F780C946F7839
:10F010000C946F780C946F780C946F780C946F78D4
:10F020000C946F780C946F780C946F780C946F78C4
:10F030000C946F780C946F780C946F780C946F78B4
:10F040000C946F780C946F780C94577A0C946F78BA
:10F050000C94A47C0C94D27C0C946F780C946F78F4
:10F060000C946F780C946F780C946F780C946F7884
:10F070000B08105B11F81547191D1A1C1BC71C0043
:10F080001DB221B623EA002E012E0206030D04E96B
:10F0900005CA063D070C0B060D210E650F5010C862
:10F0A00011931203153416011730181819161B4343
:10F0B0002156250026112D353EC311241FBECFEF4A
:10F0C000D0E1DEBFCDBF21E0A0E0B1E001C01D92E4
:10F0D000A13DB207E1F70E945E7D0C94F37D0C9494
:10F0E000007898E09B01660F771F87FD616037FF0E
:10F0F00004C021E2622720E17227880F915091F726
:10F10000CB0108959FB7F89485B7282F216025BFBC
:10F11000826085BF9FBF85B5826085BD16BCEEE667
:10F12000F0E080818160808381E08DBB82E080930C
:10F1300069000895EF92FF920F931F93CF93DF938F
:10F140008B019C0101308FEE18072105310508F075
:10F1500038C0F894F999FECFD80183E0F801809384
:10F160005700E89507B600FCFDCF60E070E0C1E015
:10F17000FA01D0814E5F5F4F7B01EA0EFB1ECA0190
:10F180000197FC01808190E0982F88278D0F911DB9
:10F19000F7010C01C0935700E89511246E5F7F4F73
:10F1A0006115F1E07F0721F785E0F80180935700B2
:10F1B000E89507B600FCFDCF81E180935700E89504
:10F1C0007894DF91CF911F910F91FF90EF90089568
:10F1D00080910201882309F43FC0F8941092020143
:10F1E00060919501609359019091960186E7892776
:10F1F00080935A01E6E9F1E020E030E050E082E05F
:10F20000820F8617C0F49191945240819427D901BE
:10F21000A75ABE4F12969C934BEF420F433038F4DF
:10F22000D901AF5ABE4F4C91941304C051E02F5FE7
:10F230003F4FE5CF50E090E0FC01E75AFE4FDC0184
:10F24000AB56BE4F9C9180915B0189278083789457
:10F2500081E0511101C080E00895DC0111968C918C
:10F26000119796E7982711969C93119712962C91D7
:10F27000129782E03C91E82FF0E0EA0FFB1F831722
:10F2800030F494523081932790838F5FF3CF808145
:10F2900082278083F89460E0CD010E94B57B78944A
:10F2A0000895CF93DF93CDB7DEB72B970FB6F894C1
:10F2B000DEBF0FBECDBFFC018AE0898381818A83D6
:10F2C00080E88B8382E08C83A6E5B1E08C918D830E
:10F2D00011968C9111978E8312968C918F838481D5
:10F2E00088878581898786818A876B87CE01019689
:10F2F0000E942D792B960FB6F894DEBF0FBECDBFBE
:10F30000DF91CF910895CF93DF93C0E0D0E06FEF0E
:10F310007FEFFE0184910E947178BC012196CE3F5F
:10F32000FFEEDF07B1F780E00E947178BC0180E05A
:10F330000E9471789C01FE014591549181E0421731
:10F34000530709F080E0DF91CF910895611103C068
:10F35000FC01228125FD0C9451790895CF93DF9310
:10F36000CDB7DEB765970FB6F894DEBF0FBECDBF41
:10F3700084E189831A821B8280E18C83E6E5F1E0D7
:10F3800080818D8381818E8382818F831886198607
:10F390001A861B86E8E4F1E080818C8781818D8765
:10F3A00082818E8783818F878481888B8581898BF9
:10F3B00086818A8B87818B8B80858C8B81858D8BD9
:10F3C000CE0101960E942D7965960FB6F894DEBFA6
:10F3D0000FBECDBFDF91CF910895FC0190E094174F
:10F3E00001F1289A20E030E02E173F0749F0AFECFA
:10F3F000B7E01197F1F700C000002F5F3F4FF4CF47
:10F40000289820E030E02617370749F0AFECB7E046
:10F410001197F1F700C000002F5F3F4FF4CF9F5FBF
:10F42000DECF08950E948379811113C041E061E02D
:10F4300070E080ED97E00E94ED79A8959EE088E16C
:10F440000FB6F894A895809360000FBE909360006B
:10F45000FFCF08951F920F920FB60F9211242F9392
:10F460003F934F935F936F937F938F939F93AF934C
:10F47000BF93EF93FF93F89485E991E00E94E97BB5
:10F48000882319F081E0809302017894FF91EF9135
:10F49000BF91AF919F918F917F916F915F914F91AC
:10F4A0003F912F910F900FBE0F901F9018951F92B4
:10F4B0000F920FB60F9211248F939F9316BC8091D9
:10F4C0000001909101010196909301018093000148
:10F4D0009F918F910F900FBE0F901F901895ECEF9A
:10F4E000FFEE859194918131974449F44AE062E3BB
:10F4F00070E082E390E00E94ED790E94807F5F9847
:10F500002898F89485B7982F916095BF8D7F85BF17
:10F51000E0E0F0E0099480910001909101018133D5
:10F52000954720F00E94127A0C946F7A08951092F9
:10F530000101109200010E948B7A0E94E8788823D2
:10F54000D1F380915C018B3C29F460E089E591E086
:10F550000C94A67960E889E591E00E945179EBCF9F
:10F56000CF93DF93CDB7DEB7DA950FB6F894DEBF51
:10F570000FBECDBFE0905A01109201011092000120
:10F58000812C912C540100E010E0F12C0E948B7A28
:10F590000E94E8788823D1F380915C018A3CB1F71E
:10F5A00080915A018E110DC0F11014C08114910484
:10F5B000A104B10489F021E0821A9108A108B108E0
:10F5C0000BC08E1538F485E78E15F8F68FE78E0D93
:10F5D0008437D8F2F11019C08091630190E0982F20
:10F5E000882720916401820F911D8115914071F649
:10F5F0000091590110E00B501109A80165E671E076
:10F60000CE0101960E94EA7D18C04091590150E058
:10F61000495051096A01C00ED11E81E0C816D806B2
:10F6200008F0B3CF63E671E081E090E08C0F9D1F9E
:10F63000800F911F0E94EA7D860180915B018032DC
:10F6400019F0FF24F394A2CF011521E0120709F06D
:10F650009CCF289A9A2D892D782D6627AE014F5F71
:10F660005F4F0E949A788FEF881A980AA80AB80A02
:10F6700010920101109200012898E0905A0160E078
:10F6800089E591E00E94A67980CF8EBD0DB407FE7A
:10F69000FDCF8EB508952C982E99FECF0E94457B04
:10F6A0002C9A0895EF92FF920F931F93CF93DF93BD
:10F6B00000D0CDB7DEB7142F2C982E99FECF8064E2
:10F6C00069837A830E94457B6981062FE62E7A81C1
:10F6D000F72E8E2D801B811730F4F70181917F0169
:10F6E0000E94457BF6CF2C9A0F900F90DF91CF911F
:10F6F0001F910F91FF90EF900895CF92DF92FF92AC
:10F700000F931F93CF93DF931F92CDB7DEB7182FC0
:10F71000042F2C982E99FECF862F806C99830E94FF
:10F72000457BF12EC12E9981D92E8C2D8F198017F2
:10F7300038F480E00E94457BF60181936F01F5CF9C
:10F740002C9A0F90DF91CF911F910F91FF90DF9036
:10F75000CF9008952C982E99FECF862B0E94457B42
:10F7600080E00E94457B2C9A0895CF93DF93EC01B3
:10F7700086E30E944B7B8AE30E944B7B8BE30E94D3
:10F780004B7B8FEC97E00197F1F700C000004881B8
:10F790004F5FBE018FE30E94527B8AE30E944B7B46
:10F7A00085E30E944B7BC8EC60EC85E30E94AA7B5A
:10F7B0008D3061F060EC85E30E94AA7B833131F4E7
:10F7C0009AE19A95F1F700C0C15071F7DF91CF919E
:10F7D0000895CF93DF93EC0160EC8BE30E94AA7B4A
:10F7E000982F9F7749F087FD07C060E88FE30E945C
:10F7F000AA7B88838D3310F0188217C0482F6FE3DF
:10F80000CE0101960E947D7B60E88FE30E94AA7B77
:10F8100060E88FE30E94AA7B982F9F779093550111
:10F82000881F8827881F809353018AE30E944B7B9F
:10F8300086E30E944B7B84E30E944B7B8CE30E9417
:10F840004B7B8881DF91CF910895CF93DF931F92F7
:10F85000CDB7DEB72C982E99FECF69830E94457BE9
:10F860006981862F0E94457B2C9A0F90DF91CF9162
:10F8700008951F93CF93DF93182FF894249A259A15
:10F880002698279A52982C9A2F9A2D9880E58CBD0D
:10F890002C9A80E58A95F1F72C9890E59A95F1F7E6
:10F8A0002C9AE8E7EA95F1F780E30E944B7B87EC1E
:10F8B00090E00197F1F700C00000C6E8D0EFFE012C
:10F8C00031966491FE0184910E94257C2296F0EF8E
:10F8D000CA3BDF07A1F711110AC083E30E944B7BEB
:10F8E0008FE39FE10197F1F700C000000FC0C0E770
:10F8F000D0EFFE0131966491FE0184910E94257C37
:10F900002296F0EFC638DF07A1F7E7CF84E30E9425
:10F910004B7B60EC85E30E94AA7B8D30B9F760ECED
:10F920008EE30E94257C84E30E944B7B8CE30E9443
:10F930004B7B8FE697E10197F1F700C000007894C8
:10F94000DF91CF911F9108951F920F920FB60F92E2
:10F9500011242F938F939F93EF93FF938091C00077
:10F960009091C6008871E0910501EF5FEF712091E1
:10F970000401E21739F0E0930501F0E0E85FFE4F83
:10F98000908301C082E090910301892B8093030151
:10F99000FF91EF919F918F912F910F900FBE0F903C
:10F9A0001F9018951F920F920FB60F9211248F93EC
:10F9B0009F93EF93FF939091070180910601981711
:10F9C00069F0E0910601EF5FEF71E0930601F0E06E
:10F9D000E85DFE4F80818093C60005C08091C10024
:10F9E0008F7D8093C100FF91EF919F918F910F9038
:10F9F0000FBE0F901F9018951092070110920601EC
:10FA0000109205011092040197FF04C022E0209398
:10FA1000C0009F779093C5008093C40088E98093CD
:10FA2000C10086E08093C200089590910501809105
:10FA30000401981781F0E0910401EF5FEF71E0930A
:10FA40000401F0E0E85FFE4F808190910301109285
:10FA5000030190E0089580E091E0089590910701FE
:10FA60009F5F9F71209106019217E1F3E92FF0E06B
:10FA7000E85DFE4F8083909307018091C100806212
:10FA80008093C1000895CF93DF93EC01899188237F
:10FA900019F00E942E7DFACFDF91CF910895CF9378
:10FAA000DF93FC018491EF012196882321F00E94CD
:10FAB0002E7DFE01F7CFDF91CF910895C4B7C3FB30
:10FAC000CC27C0F914BEA8950FB6F894A8958091DC
:10FAD0006000886180936000109260000FBE5798AC
:10FAE0005F9A2AE12A95F1F700C0209A41E04F9BE6
:10FAF00032C0C11130C06CE271E08CE291E00E9432
:10FB0000ED798FEF94E32CE0815090402040E1F7B5
:10FB100000C0000042E066E970E086E990E00E94E3
:10FB2000ED798FEF94E32CE0815090402040E1F795
:10FB300000C0000041E06CE271E08CE291E00E94C4
:10FB4000ED798FEF99E628E1815090402040E1F770
:10FB500000C0000006C068EC70E089E190E00E94FF
:10FB6000ED790E94827880E00E94397C4F9B07C02B
:10FB7000C11105C00E94837981110E946F7A41E012
:10FB800068EC70E089E190E00E94ED7943E050E09C
:10FB90006CEF7FEF86E591E00E94E17D4AE050E066
:10FBA00062EF7FEF88E491E00E94E17D0E94AE79F0
:10FBB0000E94977A81E00E94397C0E94977A0E9485
:10FBC000B07AFB01DC0102C005900D92415050401B
:10FBD000D8F70895FB01DC0102C001900D9241505D
:0AFBE0005040D8F70895F894FFCFC5
:10FF0000F894289A80E090E0A3E0B1E0C5E0BC015D
:10FF10007051FB01A0935700E89507B600FCFDCF98
:10FF20009C019395F90105911491F901F051080193
:10FF3000B0935700E89511242E5F3F4F28173907DB
:10FF400089F7FB01C0935700E89507B600FCFDCF89
:10FF50008115FFE09F07D9F6E0E0FFEE83E0809394
:10FF60005700E89507B600FCFDCF81E1809357006C
:10FF7000E89528989EE088E10FB6F894A8958093BC
:0AFF800060000FBE90936000FFCFF9
:02FFF000F0A976
:0AFFF2004B455130303030303031D3
:03FFFC0029F26E79
:040000030000F00009
:00000001FF
