:10F000000C941E790C94FF7A0C9430790C9430791E
:10F010000C9430790C9430790C9430790C943079CC
:10F020000C9430790C9430790C9430790C943079BC
:10F030000C9430790C9430790C9430790C943079AC
:10F040000C9430790C9430790C942C7B0C9430799E
:10F050000C94BA7D0C94E87D0C9430790C94307942
:10F060000C9430790C9430790C9430790C9430797C
:10F070002E007061676553697A6520616E64206255
:10F080006C6F636B506F73206469666665720A000B
:10F09000546F206D616E79206461746120666F72B7
:10F0A000207061676553697A650A00626C6F636BF3
:10F0B0004C656E2064696666657220706167655391
:10F0C000697A650A0057726F6E67204D73674964ED
:10F0D000210A0052657472616E736D69742C20721E
:10F0E00065666C617368210A00476F74206F7468ED
:10F0F0006572206D7367547970650A0052656365A7
:10F10000697665206669726D776172650A00476F7E
:10F1100074204342206D73670A005761697420664A
:10F120006F72204342206D73670A00545820626F4B
:10F130006F746C6F616465722073657175656E6361
:10F14000650A0054696D656F75740A0053746172C5
:10F1500074204170700A00426F6F746C6F61646557
:10F16000722073656C66557064617465210A004392
:10F170005243206661696C2C205265626F6F740A7D
:10F1800000435243204F4B0A00706167654164643D
:10F1900072206578636565647320666C61736820AE
:10F1A0006D656D6F72790A005377697463682074B6
:10F1B0006F203130306B206D6F64650A000A417337
:10F1C0006B53696E204F544120426F6F746C6F61B6
:10F1D0006465722056302E372E300A0A0053776944
:10F1E00074636820746F2031306B206D6F64650A22
:10F1F000000B08105B11F81547191D1A1C1BC71CC2
:10F20000001DB221B623EA002E012E0206030D04D2
:10F21000E905CA063D070C0B060D210E650F5010BF
:10F22000C811931203153416011730181819161B3C
:10F23000432156250026112D353EC30011241FBE43
:10F24000CFEFD0E1DEBFCDBF21E0A0E0B1E001C053
:10F250001D92A13DB207E1F70E94747E0C941A7FC3
:10F260000C94007898E09B01660F771F87FD616022
:10F2700037FF04C021E2622720E17227880F9150F6
:10F2800091F7CB0108959FB7F89485B7282F216097
:10F2900025BF826085BF9FBF85B5826085BD16BCD6
:10F2A000EEE6F0E080818160808381E08DBB82E0CA
:10F2B000809369000895EF92FF920F931F93CF936D
:10F2C000DF938B019C0101308FEE1807210531057A
:10F2D00050F089E891EFDF91CF911F910F91FF904E
:10F2E000EF900C94657EF894F999FECFD80183E0F5
:10F2F000F80180935700E89507B600FCFDCF60E069
:10F3000070E0C1E0FA01D0814E5F5F4F7B01EA0EF1
:10F31000FB1ECA010197FC01808190E0982F88278D
:10F320008D0F911DF7010C01C0935700E895112432
:10F330006E5F7F4F6115F1E07F0721F785E0F801EF
:10F3400080935700E89507B600FCFDCF81E18093DC
:10F350005700E8957894DF91CF911F910F91FF901E
:10F36000EF90089580910201882309F43FC0F8943A
:10F37000109202016091950160935901909196015C
:10F3800086E7892780935A01E6E9F1E020E030E042
:10F3900050E082E0820F8617C0F491919452408130
:10F3A0009427D901A75ABE4F12969C934BEF420F58
:10F3B000433038F4D901AF5ABE4F4C91941304C076
:10F3C00051E02F5F3F4FE5CF50E090E0FC01E75A5E
:10F3D000FE4FDC01AB56BE4F9C9180915B018927AB
:10F3E0008083789481E0511101C080E00895DC01B0
:10F3F00011968C91119796E7982711969C931197E7
:10F4000012962C91129782E03C91E82FF0E0EA0FDF
:10F41000FB1F831730F494523081932790838F5FC2
:10F42000F3CF808182278083F89460E0CD010E9431
:10F43000CB7C78940895CF93DF93CDB7DEB72B972D
:10F440000FB6F894DEBF0FBECDBFFC018AE0898302
:10F4500081818A8380E88B8382E08C83A6E5B1E09A
:10F460008C918D8311968C9111978E8312968C912D
:10F470008F83848188878581898786818A876B8746
:10F48000CE0101960E94F7792B960FB6F894DEBF55
:10F490000FBECDBFDF91CF910895CF93DF93C0E032
:10F4A000D0E06FEF7FEFFE0184910E943279BC01C2
:10F4B0002196CE3FFFEEDF07B1F780E00E94327960
:10F4C000BC0180E00E9432799C01FE01459154917B
:10F4D00081E04217530709F080E0DF91CF91089552
:10F4E000611103C0FC01228125FD0C941B7A089553
:10F4F000CF93DF93CDB7DEB765970FB6F894DEBF35
:10F500000FBECDBF8BE291EF0E94657E84E18983BF
:10F510001A821B8280E18C83E6E5F1E080818D8395
:10F5200081818E8382818F83188619861A861B8635
:10F53000E8E4F1E080818C8781818D8782818E87EC
:10F5400083818F878481888B8581898B86818A8B53
:10F5500087818B8B80858C8B81858D8BCE010196ED
:10F560000E94F77965960FB6F894DEBF0FBECDBF47
:10F57000DF91CF910895FC0190E0941701F1289A52
:10F5800020E030E02E173F0749F0AFECB7E01197CD
:10F59000F1F700C000002F5F3F4FF4CF289820E024
:10F5A00030E02617370749F0AFECB7E01197F1F7D5
:10F5B00000C000002F5F3F4FF4CF9F5FDECF089564
:10F5C0000E944D7A882321F081E891EF0C94657EAA
:10F5D00041E061E070E080ED97E00E94BB7A8FE649
:10F5E00091EF0E94657EA8959EE088E10FB6F894A1
:10F5F000A895809360000FBE90936000FFCF1F928C
:10F600000F920FB60F9211242F933F934F935F9356
:10F610006F937F938F939F93AF93BF93EF93FF93DA
:10F62000F89485E991E00E94FF7C882319F081E03D
:10F63000809302017894FF91EF91BF91AF919F91D8
:10F640008F917F916F915F914F913F912F910F908B
:10F650000FBE0F901F9018951F920F920FB60F922A
:10F6600011248F939F9316BC80910001909101010A
:10F67000019690930101809300019F918F910F90CB
:10F680000FBE0F901F901895ECEFFFEE85919491AF
:10F690008131974499F487E591EF0E94657E8FEF61
:10F6A00099EF0197F1F700C000004AE062E370E0D3
:10F6B00082E390E00E94BB7A0E94807F8CE491EF0D
:10F6C0000E94657EEFEFF9EF3197F1F700C000007F
:10F6D0005F982898F89485B7982F916095BF8D7F93
:10F6E00085BFE0E0F0E00994809100019091010174
:10F6F0008133954740F083E491EF0E94657E0E943C
:10F70000E07A0C94447B08958AE191EF0E94657E33
:10F7100010920101109200010E94747B0E94B27944
:10F720008823D1F380915C018B3C49F48EE091EF0A
:10F730000E94657E60E089E591E00C94707A60E853
:10F7400089E591E00E941B7AE7CFCF93DF93CDB795
:10F75000DEB7DA950FB6F894DEBF0FBECDBFE090EE
:10F760005A0110920101109200018CEF90EF0E945B
:10F77000657E812C912C540100E010E0F12C0E9458
:10F78000747B0E94B2798823D1F380915C018A3C1A
:10F7900019F089EE90EF32C080915A018E1110C09D
:10F7A000F1100EC081149104A104B10449F021E0CC
:10F7B000821A9108A108B10883ED90EF0E94657E3E
:10F7C00080915A018E1550F485E78E1520F48FE74D
:10F7D0008E0D843718F485EC90EF4AC0F1101EC0EE
:10F7E0008091630190E0982F882720916401820F17
:10F7F000911D8115914029F08BEA90EF0E94657E62
:10F80000BECF0091590110E00B501109A80165E627
:10F8100071E0CE0101960E94117F1DC040915901F7
:10F8200050E0495051096A01C00ED11E81E0C8164E
:10F83000D80618F080E990EF1BC063E671E081E024
:10F8400090E08C0F9D1F800F911F0E94117F21E07F
:10F850008601F21294CF80915B01803219F0FF246F
:10F86000F3948DCF011581E0180729F082E790EF1E
:10F870000E94657E83CF80E790EF0E94657E289A84
:10F880009A2D892D782D6627AE014F5F5F4F0E941C
:10F890005B792FEF821A920AA20AB20A1092010132
:10F8A000109200012898E0905A0160E089E591E00B
:10F8B0000E94707A63CF8EBD0DB407FEFDCF8EB56A
:10F8C00008952C982E99FECF0E945B7C2C9A089567
:10F8D000EF92FF920F931F93CF93DF9300D0CDB79A
:10F8E000DEB7142F2C982E99FECF806469837A831B
:10F8F0000E945B7C6981062FE62E7A81F72E8E2D81
:10F90000801B811730F4F70181917F010E945B7C9D
:10F91000F6CF2C9A0F900F90DF91CF911F910F91FE
:10F92000FF90EF900895CF92DF92FF920F931F9375
:10F93000CF93DF931F92CDB7DEB7182F042F2C98EB
:10F940002E99FECF862F806C99830E945B7CF12ECE
:10F95000C12E9981D92E8C2D8F19801738F480E013
:10F960000E945B7CF60181936F01F5CF2C9A0F907A
:10F97000DF91CF911F910F91FF90DF90CF9008956D
:10F980002C982E99FECF862B0E945B7C80E00E94F3
:10F990005B7C2C9A0895CF93DF93EC0186E30E9461
:10F9A000617C8AE30E94617C8BE30E94617C8FEC26
:10F9B00097E00197F1F700C0000048814F5FBE015A
:10F9C0008FE30E94687C8AE30E94617C85E30E9449
:10F9D000617CC8EC60EC85E30E94C07C8D3061F0F6
:10F9E00060EC85E30E94C07C833131F49AE19A9502
:10F9F000F1F700C0C15071F7DF91CF910895CF9317
:10FA0000DF93EC0160EC8BE30E94C07C982F9F7722
:10FA100049F087FD07C060E88FE30E94C07C8883BF
:10FA20008D3310F0188217C0482F6FE3CE01019676
:10FA30000E94937C60E88FE30E94C07C60E88FE3C3
:10FA40000E94C07C982F9F7790935501881F88272C
:10FA5000881F809353018AE30E94617C86E30E94A1
:10FA6000617C84E30E94617C8CE30E94617C8881DC
:10FA7000DF91CF910895CF93DF931F92CDB7DEB77B
:10FA80002C982E99FECF69830E945B7C6981862F1A
:10FA90000E945B7C2C9A0F90DF91CF9108951F9369
:10FAA000CF93DF93182FF894249A259A2698279AB3
:10FAB00052982C9A2F9A2D9880E58CBD2C9A80E52F
:10FAC0008A95F1F72C9890E59A95F1F72C9AE8E74A
:10FAD000EA95F1F780E30E94617C87EC90E0019762
:10FAE000F1F700C00000C7E0D2EFFE01319664914B
:10FAF000FE0184910E943B7D2296F2EFCB33DF071B
:10FB0000A1F711110AC083E30E94617C8FE39FE19A
:10FB10000197F1F700C000000FC0C1EFD1EFFE0167
:10FB200031966491FE0184910E943B7D2296F2EF12
:10FB3000C730DF07A1F7E7CF84E30E94617C60EC68
:10FB400085E30E94C07C8D30B9F760EC8EE30E94A3
:10FB50003B7D84E30E94617C8CE30E94617C8FE6A4
:10FB600097E10197F1F700C000007894DF91CF9101
:10FB70001F9108951F920F920FB60F9211242F9389
:10FB80008F939F93EF93FF938091C0009091C60055
:10FB90008871E0910501EF5FEF7120910401E21798
:10FBA00039F0E0930501F0E0E85FFE4F908301C07B
:10FBB00082E090910301892B80930301FF91EF91E3
:10FBC0009F918F912F910F900FBE0F901F901895BE
:10FBD0001F920F920FB60F9211248F939F93EF9362
:10FBE000FF939091070180910601981769F0E091C9
:10FBF0000601EF5FEF71E0930601F0E0E85DFE4F74
:10FC000080818093C60005C08091C1008F7D809364
:10FC1000C100FF91EF919F918F910F900FBE0F90B8
:10FC20001F9018951092070110920601109205017D
:10FC30001092040197FF04C022E02093C0009F7738
:10FC40009093C5008093C40088E98093C10086E04A
:10FC50008093C20008959091050180910401981746
:10FC600081F0E0910401EF5FEF71E0930401F0E0B7
:10FC7000E85FFE4F8081909103011092030190E0B4
:10FC8000089580E091E00895909107019F5F9F7132
:10FC9000209106019217E1F3E92FF0E0E85DFE4FB5
:10FCA0008083909307018091C10080628093C1009E
:10FCB0000895CF93DF93EC018991882319F00E9476
:10FCC000447EFACFDF91CF910895CF93DF93FC016B
:10FCD0008491EF012196882321F00E94447EFE0149
:10FCE000F7CFDF91CF910895C4B7C3FBCC27C0F9FC
:10FCF00014BEA8950FB6F894A8958091600088610D
:10FD000080936000109260000FBE57985F9A2AE1BE
:10FD10002A95F1F700C0209A4F9B33C0C11131C022
:10FD200040E06CE271E08CE291E00E94BB7A8FEFE0
:10FD300094E32CE0815090402040E1F700C00000A7
:10FD400047E066E970E086E990E00E94BB7A8FEFB9
:10FD500094E32CE0815090402040E1F700C0000087
:10FD600040E06CE271E08CE291E00E94BB7A8FEFA0
:10FD700099E628E1815090402040E1F700C0000062
:10FD800007C041E068EC70E089E190E00E94BB7A36
:10FD90000E9443798DED91EF0E94657E80E00E9484
:10FDA0004F7D88E090E00E94127E8DEB91EF0E94E3
:10FDB000657E4F9B07C0C11105C00E944D7A81111D
:10FDC0000E94447B41E068EC70E089E190E00E9491
:10FDD000BB7A43E050E06CEF7FEF86E591E00E9454
:10FDE000087F4AE050E062EF7FEF88E491E00E94F4
:10FDF000087F0E94787A0E94847B88EA91EF0E94B3
:10FE0000657E81E00E944F7D0E94847B0E94A57BDD
:10FE1000FB01DC0102C005900D9241505040D8F723
:10FE20000895FB01DC0102C001900D924150504049
:08FE3000D8F70895F894FFCF04
:10FF0000F894289A80E090E0A3E0B1E0C5E0BC015D
:10FF10007051FB01A0935700E89507B600FCFDCF98
:10FF20009C019395F90105911491F901F051080193
:10FF3000B0935700E89511242E5F3F4F28173907DB
:10FF400089F7FB01C0935700E89507B600FCFDCF89
:10FF50008115FFE09F07D9F6E0E0FFEE83E0809394
:10FF60005700E89507B600FCFDCF81E1809357006C
:10FF7000E89528989EE088E10FB6F894A8958093BC
:0AFF800060000FBE90936000FFCFF9
:02FFF000F0A976
:0AFFF2004C455130323335373139B8
:03FFFC006EF2FDA5
:040000030000F00009
:00000001FF
