:100000000C94AF000C94D7020C94B0020C948902AB
:100010000C9456030C9441040C941C040C94F703A8
:100020000C9466040C94D7000C94D7000C94D70061
:100030000C94D7000C94D7000C94D7000C94D700E4
:100040000C94D7000C94D7000C94AE0F0C94D700EE
:100050000C9424030C94FE020C94D7000C94D7004B
:100060000C94D7000C94D7000C94D7000C94D700B4
:100070000C94D7000C94D7000C94D700002E012EBE
:100080000206030D04E905CA063D070C0B060D2107
:100090000E650F6A10C8119312031534160117303C
:1000A000181819161B432156250026112D353EC35D
:1000B00016F0A94C455130323335373139104101F2
:1000C0000000002100240027002A00000022002553
:1000D0000028002B000102040810204080010204C7
:1000E0000810204080010204081020408001020412
:1000F0000810204080000000020300000000000003
:1001000000050409080000000000000000000000D5
:10011000000000000000002000230026002900024B
:10012000020202020202020404040404040404039E
:1001300003030303030303010101010101010101A1
:100140000E5E071102EC061104E5013E00E10140DC
:10015000005E06FFFFE2010000000000B61D112452
:100160001FBECFEFD0E1DEBFCDBF12E0A0E0B1E017
:10017000EAEEFEE302C005900D92A43DB107D9F767
:1001800027E0A4EDB2E001C01D92AF32B207E1F763
:1001900010E0CFEAD0E004C02197FE010E94451F85
:1001A000CE3AD107C9F70E94F80F0C94731F0C9434
:1001B00000000895CF92DF92EF92FF920F931F936A
:1001C000CF93DF936C017A018B01C0E0D0E0CE15B4
:1001D000DF0581F0D8016D918D01D601ED91FC9183
:1001E0000190F081E02DC6010995892B11F021962F
:1001F000EECF7E01C701DF91CF911F910F91FF904C
:10020000EF90DF90CF900895FC01918D828D98172B
:1002100061F0828DDF01A80FB11D5D968C91928DEA
:100220009F5F9F73928F90E008958FEF9FEF0895E7
:10023000FC01918D828D981731F0828DE80FF11DB0
:10024000858D90E008958FEF9FEF0895FC01918DCB
:10025000228D892F90E0805C9F4F821B91098F73C4
:100260009927089581EF93E00E94260121E0892BD0
:1002700009F420E0822F0895FC01848DDF01A80F8E
:10028000B11DA35ABF4F2C91848D90E001968F73BE
:100290009927848FA689B7892C93A089B1898C91DD
:1002A00080648C93938D848D981306C00288F389A3
:1002B000E02D80818F7D80830895EF92FF920F93D0
:1002C0001F93CF93DF93EC0181E0888F9B8D8C8D02
:1002D000981305C0E889F989808185FD24C0F62E30
:1002E0000B8D10E00F5F1F4F0F731127E02E8C8DC9
:1002F000E8120CC00FB607FCFACFE889F9898081B3
:1003000085FFF5CFCE010E943C01F1CF8B8DFE0120
:10031000E80FF11DE35AFF4FF0820B8FEA89FB894A
:100320008081806207C0EE89FF896083E889F9894E
:1003300080818064808381E090E0DF91CF911F9184
:100340000F91FF90EF900895CF93DF93EC01888D8C
:100350008823C9F0EA89FB89808185FD05C0A889C9
:10036000B9898C9186FD0FC00FB607FCF5CF80814F
:1003700085FFF2CFA889B9898C9185FFEDCFCE0199
:100380000E943C01E7CFDF91CF91089580E090E09B
:10039000892B21F00E94320181110DC080E090E094
:1003A000892B71F080E090E0892B51F00E940000D1
:1003B000811104C008950E940000F0CF0C94000049
:1003C0000895089508950E944B1FCF93C82F0E944F
:1003D0006709C11103C0CF910C94FF0DCF9108950F
:1003E0008091D4028823E9F08091DE02982F9F70DB
:1003F00082958F70933031F4863099F083E6809344
:10040000DE0205C0833069F090639093DE020E94A3
:10041000A20F6093E8027093E9028093EA0290933E
:10042000EB020895833091F48091930481706330DE
:1004300009F48260809393040E94A20F6093940455
:100440007093950480939604909397040895CF93A6
:10045000DF93F894811103C040916B000FC081308D
:1004600019F440916C000AC0823019F440916D007B
:1004700005C0833009F046C04091730090E0FC0154
:10048000EE0FFF1FE454FC4F01A4F2A5E02D2081E4
:10049000542F5223FC01E454FC4F21A9452F42273D
:1004A00089F151AB982F8827840F911DEDEBF3E074
:1004B00020E030E06191719186179707F1F4220FE7
:1004C000331FF901E454FC4FC589D689452391E0D7
:1004D00009F490E0888190FB81F988830E94A20F43
:1004E000DC01CB01C296A11DB11D89839A83AB8328
:1004F000BC8388818160888305C02F5F3F4F2A308D
:100500003105C1F67894DF91CF9108958CE00C9479
:10051000B80D1F920F920FB60F9211242F933F9395
:100520004F935F936F937F938F939F93AF93BF93FB
:10053000EF93FF93E0910401F09105010995FF917C
:10054000EF91BF91AF919F918F917F916F915F914B
:100550004F913F912F910F900FBE0F901F901895C4
:100560001F920F920FB60F9211242F933F934F9328
:100570005F936F937F938F939F93AF93BF93EF930B
:10058000FF93E0910201F09103010995FF91EF9132
:10059000BF91AF919F918F917F916F915F914F919B
:1005A0003F912F910F900FBE0F901F9018951F92A3
:1005B0000F920FB60F9211242F933F934F935F9397
:1005C0006F937F938F939F93AF93BF93EF93FF931B
:1005D000E0910001F09101010995FF91EF91BF9128
:1005E000AF919F918F917F916F915F914F913F91CB
:1005F0002F910F900FBE0F901F9018951F920F9282
:100600000FB60F9211242F933F934F935F936F93E5
:100610007F938F939F93AF93BF93EF93FF9381EF5C
:1006200093E00E943C01FF91EF91BF91AF919F91A8
:100630008F917F916F915F914F913F912F910F908B
:100640000FBE0F901F9018951F920F920FB60F922A
:1006500011242F938F939F93EF93FF93E0910104C5
:10066000F09102048081E0910704F091080482FD7A
:1006700012C0908180910A048F5F8F7320910B04C8
:10068000821751F0E0910A04F0E0EF50FC4F958F93
:1006900080930A0401C08081FF91EF919F918F9117
:1006A0002F910F900FBE0F901F9018951F920F92D1
:1006B0000FB60F9211240F931F932F933F934F93D5
:1006C0005F936F937F938F939F93AF93BF93CF93DA
:1006D000EF93FF93F894E4E1F1E08491E4EFF0E02C
:1006E0001491EEE3F1E0C491CC23A1F081110E94BA
:1006F0008F0DEC2FF0E0EE0FFF1FEB5EFE4FA5918C
:10070000B491EC91E12331E020E009F430E0832F53
:10071000922F02C080E090E0282F217030917F035B
:10072000231709F44FC020937F03892B59F00E94AF
:100730007D0F60937B0370937C0380937D03909384
:100740007E0340C00E947D0F00917B0310917C03CB
:1007500020917D0330917E03DC01CB01801B910B46
:10076000A20BB30B0091DA021091DB022091DC02A4
:100770003091DD02080F191F2A1F3B1F0093DA0278
:100780001093DB022093DC023093DD020091D6024D
:100790001091D7022091D8023091D902800F911F79
:1007A000A21FB31F8093D6029093D702A093D802C2
:1007B000B093D90210927B0310927C0310927D03B8
:1007C00010927E037894FF91EF91CF91BF91AF91FA
:1007D0009F918F917F916F915F914F913F912F9159
:1007E0001F910F910F900FBE0F901F9018951F92A1
:1007F0000F920FB60F9211242F933F934F935F9355
:100800006F937F938F939F93AF93BF93EF93FF93D8
:1008100083E00E942702FF91EF91BF91AF919F91DA
:100820008F917F916F915F914F913F912F910F9099
:100830000FBE0F901F9018951F920F920FB60F9238
:1008400011242F933F934F935F936F937F938F93D5
:100850009F93AF93BF93EF93FF9382E00E94270291
:10086000FF91EF91BF91AF919F918F917F916F9188
:100870005F914F913F912F910F900FBE0F901F905E
:1008800018951F920F920FB60F9211242F933F933A
:100890004F935F936F937F938F939F93AF93BF9388
:1008A000EF93FF9381E00E942702FF91EF91BF91A8
:1008B000AF919F918F917F916F915F914F913F91F8
:1008C0002F910F900FBE0F901F9018951F920F92AF
:1008D0000FB60F9211248F9381E08093D5028F91F0
:1008E0000F900FBE0F901F901895CF93DF93CDB749
:1008F000DEB760970FB6F894DEBF0FBECDBF90E1B4
:10090000E7E2F1E0DE01119601900D929A95E1F790
:10091000282F2F71E82FF0E085E0F595E7958A956F
:10092000E1F7EE0FFF1F81E090E08C0F9D1FE80FB5
:10093000F91F0190F081E02D30E0A4E6B0E00E94C4
:10094000361F9B01AC01DF010E94011F60960FB6AC
:10095000F894DEBF0FBECDBFDF91CF9108958F9287
:100960009F92AF92BF92CF92DF92EF92FF92CF937E
:10097000DF93EC01888DE98DFA8D8F7309950E94C4
:10098000A20F6B017C012E8530E0A8EEB3E00E943F
:10099000361FC60ED71EE81EF91E2F8530E00E94B6
:1009A000361F4B015C01672B682B692B39F00E94C5
:1009B0003A1EA50194010E94E21E03C060E070E0AF
:1009C000CB01C60ED71EE81EF91ECC8ADD8AEE8A40
:1009D000FF8ADF91CF91FF90EF90DF90CF90BF9093
:1009E000AF909F908F9008958F929F92AF92BF92F9
:1009F000CF92DF92EF92FF920F931F93CF93DF93EB
:100A0000EC01D42EF80119E01C0D5C018AE6A80E59
:100A1000B11CD5011C9311966C9311964C931196B1
:100A20002C931196209124013091250140912601AB
:100A30002D933D934C934E01B1E78B0E911C83E0B7
:100A4000D40101900D928A95E1F7CE018C589F4F09
:100A50008E159F0529F04C2D50E0B7010E946A1FAA
:100A6000FE01E855FF4FD5FE02C083E001C081E0E2
:100A70008083FE01E355FF4FD4FADD24D0F8D08205
:100A800043E050E064E271E0C4010E945D1F892BE5
:100A900051F4412F50E04F5F5F4FB501CE018255B9
:100AA0009F4F0E946A1FC955DF4F81E08883DF9105
:100AB000CF911F910F91FF90EF90DF90CF90BF905B
:100AC000AF909F908F900895CF92EF92FF920F93E7
:100AD0001F93CF93DF93FC01D901662351F0539606
:100AE0008C91539785FD0AC080917A03841306C0C8
:100AF000DDC080917A03481709F4D8C040937A0387
:100B0000662321F053968C91539703C018968C91CD
:100B10001897837021F480818F7080838BC081301F
:100B200009F06AC0613099F580818F70863031F4A8
:100B300054968C915497807F866019C0833039F425
:100B400054968C9154978295807F836010C0843036
:100B500031F455968C915597807F846008C0813020
:100B600039F455968C9155978295807F816080836A
:100B70001F968C911F97818350968C9150978283FA
:100B800051968C915197838352968C9152C06111EA
:100B900051C080818F70863031F419968C911997ED
:100BA000807F866019C0833039F419968C9119972B
:100BB0008295807F836010C0843031F41A968C91C6
:100BC0001A97807F846008C0813039F41A968C911E
:100BD0001A978295807F8160808314968C911497F8
:100BE000818315968C911597828316968C91169712
:100BF000838317968C911DC090814170823059F487
:100C0000442311F086E001C083E08295807F9F70CD
:100C1000982B90830AC0442311F083E001C086E042
:100C20008295807F9F70892B808311828FEF8283D2
:100C300013828483EF0188E285830E94A20F6A8772
:100C40007B878C879D878881282F207F203121F00A
:100C5000203419F020E001C020E48D70813011F0C3
:100C600040E001C048EC388D3F738A899B897C0144
:100C700054E7E50EF11C51E0D7015C93FC01EB5801
:100C8000FF4F308331964083319620833196DC01CB
:100C900012962C9120838C010E541F4FF79625E05D
:100CA000C22E22E040E860810E94F404DF91CF91DF
:100CB0001F910F91FF90EF90CF900895FB0183302B
:100CC00051F4608166FB662760F92FE833E04181CB
:100CD0008EED92E00BC0843059F4608166FB66278C
:100CE00060F926EA33E0418189EF92E00C946405D3
:100CF0000895CF92EF92FF920F931F93CF93DF93BC
:100D0000EC01162FDA014D915C91542745275427A9
:100D10005F834E832115310539F0F901808191817E
:100D200098278927982702C080E090E099878887D4
:100D30009881452B59F0112311F081E001C084E026
:100D40008295807F9F70982B98830AC0112311F0A1
:100D500083E001C086E08295807F9F70892B888325
:100D60008BE08D830E94A20F6A877B878C879D878B
:100D70002881207F203121F0203419F020E001C0AB
:100D800020E4388D3F738A899B897C01F4E7EF0E5C
:100D9000F11C41E0D7014C93FC01EB58FF4F30832D
:100DA00031961083319620833196DC0112962C9176
:100DB00020838C010E541F4FF79625E0C22E22E0AF
:100DC00040E860810E94F404DF91CF911F910F9160
:100DD000FF90EF90CF900895833081F4453020F05C
:100DE0009B012D5F3F4F02C020E030E0AB014F5F21
:100DF0005F4FFB0160818EED92E011C0843089F479
:100E0000453020F09B012D5F3F4F02C020E030E0D5
:100E1000AB014F5F5F4FFB01608189EF92E00C9463
:100E200079060895BF92CF92DF92EF92FF920F93CF
:100E30001F93CF93DF93EC01B62EC42ED22E8C01DC
:100E40000C591E4F43E050E063E872E0C8010E9475
:100E50005D1F892B49F17E0184E7E80EF11C86E0D5
:100E6000F70180833196B0823196C0823196D0826C
:100E70008A8131968083F9968081813039F4389661
:100E800080818E3019F43A97608107C0FE01EA55DF
:100E9000FF4F608181E0860F808385E0C82E20E1CE
:100EA00044EACE010E94F404DF91CF911F910F918B
:100EB000FF90EF90DF90CF90BF900895833019F5A9
:100EC000E091F002F091F1023097E9F08091E802B0
:100ED0009091E902A091EA02B091EB02892B8A2B52
:100EE0008B2B11F420E001C020E49091DE029D7074
:100EF000913011F040E001C048EC6091F6026F7350
:100F0000CF010C9412070895CF93DF93EC0161E0B9
:100F100088810E94B80D89818160898362E370E0D5
:100F200080E090E00E94080F60E088810E94B80D88
:100F300089818E7F898362E370E080E090E0DF91B9
:100F4000CF910C94080FCF92EF92FF920F931F93C3
:100F5000CF93DF93D82FC62F811136C0611105C002
:100F600082E994E00E9484072FC0663049F58091A1
:100F7000B605823040F06091B8057091B90580E007
:100F800090E00E945B0F41E150E060EB70E082E096
:100F900095E00E949E1E6091340581E0860F80934B
:100FA000340581E1C82E92E0E92E95E0F92E02EF9A
:100FB00015E020E042EA8EE894E00E94F40404C0C8
:100FC000653011F40E94FF0D8FEF8D0F8230C8F451
:100FD000C23020F460E08D2F0E94DA098EEF8C0F72
:100FE000823010F461E003C0C43059F462E08D2F08
:100FF000DF91CF911F910F91FF90EF90CF900C94C4
:10100000DA09DF91CF911F910F91FF90EF90CF9070
:1010100008956EBD0DB407FEFDCF8EB50895CF9334
:10102000DF93EC012C981E99FECF642BCE010E9419
:10103000090860E0CE010E9409082C9ADF91CF9147
:1010400008952C981E99FECF0E9409082C9A0895A5
:101050000F931F93CF93DF93E89889ED90E09093DF
:1010600001018093000140EC6BE38EE894E00E9464
:101070000F08982F9F7769F087FD0BC040E86FE35A
:101080008EE894E00E940F08D82F80933C058D33A2
:1010900018F010923C052DC02C981E99FECF6FEFD2
:1010A0008EE894E00E9409080DE315E0C0E0DC172B
:1010B00051F060E08EE894E00E940908F801819305
:1010C0008F01CF5FF4CF2C9A40E86FE38EE894E075
:1010D0000E940F0840E86FE38EE894E00E940F083A
:1010E000982F9F7790939104881F8827881F80935B
:1010F0008F046AE38EE894E00E94210866E38EE89C
:1011000094E00E94210864E38EE894E00E942108A4
:101110006CE38EE894E00E94210880913C058823CE
:1011200021F08CE395E00E94AE09DF91CF911F91F1
:101130000F910C94CC09009769F0FC0101900020FC
:10114000E9F73197AF01481B590BBC0181EF93E0E0
:101150000C94DA0080E090E008958F929F92AF9215
:10116000BF920F931F93CF93DF93CDB7DEB7A197B5
:101170000FB6F894DEBF0FBECDBF19A2423008F4FF
:101180004AE08E010F5D1F4F842E912CA12CB12CB3
:10119000A50194010E94141FE62FB901CA01015054
:1011A0001109EA3014F4E05D01C0E95CD801EC9368
:1011B000232B242B252B61F7C8010E949B08A196A5
:1011C0000FB6F894DEBF0FBECDBFDF91CF911F9158
:1011D0000F91BF90AF909F908F90089566E38EE837
:1011E00094E00E9421086AE38EE894E00E942108BE
:1011F00069E38EE894E00C942108CF93C62F2C98D5
:101200001E99FECF682F8EE894E00E9409086C2F8B
:101210008EE894E00E9409082C9ACF91089580915D
:10122000C2059091C305FC01349131962491319609
:10123000A591B4913F3F41F42F3F31F440E063E882
:1012400072E080E0FD0109940496EDCFCF932091E8
:10125000C2053091C305C0913F0550914605F90183
:101260009491319644913196A591B491C13059F43D
:10127000913021F540913C054A5067E475E0852F97
:10128000FD01099521C0C13161F49131B9F44513D3
:1012900017C040913C054B5068E475E080914705CC
:1012A00009C0C23158F09C1309C040913C05495017
:1012B00066E475E0FD010995C1E006C0992319F0C7
:1012C0002C5F3F4FCCCFC0E08C2FCF910895CF92B1
:1012D000EF92FF920F931F93CF93DF931F92CDB79F
:1012E000DEB71982CC24C394CE0101967C0100E4C0
:1012F00015E022E040E860913D058EE894E00E9410
:10130000F4040F90DF91CF911F910F91FF90EF9018
:10131000CF900895CF92EF92FF920F931F93CF93A8
:10132000DF931F92CDB7DEB780E88983CC24C394C6
:10133000CE0101967C0100E415E022E040E86091D6
:101340003D058EE894E00E94F4040F90DF91CF9168
:101350001F910F91FF90EF90CF900895DC011196AF
:101360009C91119786E7892711968C93119782E0BB
:101370002C91E82FF0E0EA0FFB1F821738F4208150
:101380009452922790838F5F922FF2CF9081129682
:101390008C9189278083089588E298E090930101D9
:1013A00080930001E9E6F0E080818C7F8260808399
:1013B000E89A0895CF93853008F04CC0E82FF0E00C
:1013C00095E0899FD0011124A759BD4F11962C910A
:1013D00097E0299FD0011124AC5ABD4F4C919D013B
:1013E00090E04917B9F12D5F3F4FD90112975C91F9
:1013F000543011F09F5FF5CF8093D10590E4909326
:10140000D205613011F090EA01C090E89093EA05AE
:10141000611102C090E001C090E4C62F892B809337
:10142000D305E651FA4F80818093D40582E0809302
:10143000E70581E08093EF0582E994E00E9484074C
:10144000C13041F0E091D105F0E0E651FA4F8081E2
:101450008F5F8083CF910895AF92BF92CF92DF923A
:10146000EF92FF920F931F93CF93DF9300D01F92C1
:10147000CDB7DEB720913701309138014091390165
:1014800029833A834B838530A8F56B018150E82F7F
:10149000F0E0EF5AFD4F008128E1829F7001112496
:1014A000A12CB12C10E08AE0E80EF11C011789F0A4
:1014B000C7018A0D9B1D44E050E0B60182579B4F47
:1014C0000E945D1FE4E0AE0EB11C892B89F01F5F06
:1014D000EDCF43E050E0BE016F5F7F4FC6010E9439
:1014E0005D1F892B39F4F6018381801718F403C03E
:1014F000812F01C08FEF0F900F900F90DF91CF9150
:101500001F910F91FF90EF90DF90CF90BF90AF9021
:101510000895EF92FF920F931F93CF93DF9385303F
:1015200008F09CC08901FA01D62FC82F80819181D3
:10153000A281B381892B8A2B8B2B19F4633088F01D
:101540008DC0C11104C080E0DD2371F08AC063301A
:1015500050F0BA018C2F0E942C0A8F3F09F47EC0F4
:1015600003C0CC2381F380E0AC2FB0E095E0C99FAD
:10157000F0011124E759FD4F4181E42EF12CE7E001
:101580004E9F900111242C5A3D4FF901C081F90161
:1015900040E050E020E030E04C1708F05FC0BA01B6
:1015A0004F5F5F4F9181D91729F09281290F311D2B
:1015B0003396F2CFAB014F5F5F4FFA01EE0FFF1F83
:1015C000E40FF51F97E09E9DA0019F9D500D1124F3
:1015D000E40FF51FEC5AFD4F9081981708F43EC0B8
:1015E000FB01EE0FFF1F6E0F7F1F460F571FFA0103
:1015F000EC5AFD4F628195E09A9FF0019B9FF00DA0
:101600001124E759FD4F9481689F900D1124290FF3
:10161000D8012C93B4E02B9F90011124F901E756D7
:10162000FE4F82819381F8019383828361831482C8
:1016300040E050E080E04C5F5F4F681789F0F901AF
:10164000E40FF51FEA56FE4FD80114967C911497CB
:101650009081970F14969C938F5FEDCF80E001C02F
:1016600081E0DF91CF911F910F91FF90EF9008954E
:10167000BF92CF92DF92EF92FF920F931F93CF937F
:10168000DF93CDB7DEB729970FB6F894DEBF0FBE54
:10169000CDBF80913A0190913B01A0913C01B09166
:1016A0003D018E839F83A887B9879E012F5F3F4F9F
:1016B00043E852E060E080E00E94890A882381F0DC
:1016C0004D8150E06091F6057091F7056E597F4F9E
:1016D0008B819C81680F791F80EF95E00E94A71E87
:1016E000C090F805D090F9054AEFE42E45E0F42EBD
:1016F000B12C00E010E09E012F5F3F4FAE014A5F2A
:101700005F4F612F802F0E94890A882321F18B2D42
:1017100090E0133051F4FC01EE0FFF1FEC0DFD1DA6
:1017200020813181F701318320834D8150E0609128
:10173000F6057091F7056E597F4F2B813C81620F42
:10174000731F880F991FF601E80FF91F808191819F
:101750000E94A71EB3941F5F183069F60F5FF2E076
:10176000EF0EF11C053031F629960FB6F894DEBF66
:101770000FBECDBFDF91CF911F910F91FF90EF90E2
:10178000DF90CF90BF9008957F928F929F92AF92FB
:10179000BF92CF92DF92EF92FF920F931F93CF935E
:1017A000DF93F82E8B01CC24CA94C80EEC2DF0E008
:1017B000EF5AFD4F708028E1C29E60011124812CF8
:1017C000912CA12CB12C8AE0C80ED11CEA2CA714B4
:1017D00008F042C0E501C601880D991D44E050E0C3
:1017E00063E872E082579B4F0E945D1F2FEFA21AA1
:1017F000B20A24E0820E911C892B41F78FEFE81684
:1018000059F18F2D90E0019726E0289FB001299F84
:10181000700D1124C60FD71FBE01660F771F660F0C
:10182000771FEB0122966091F6057091F7056C0F1A
:101830007D1F44E050E0C8010E94C51E6091F6057E
:101840007091F7056E5F7F4F40E650E088E994E0C5
:101850000E94A71E81E001C080E0DF91CF911F911F
:101860000F91FF90EF90DF90CF90BF90AF909F903F
:101870008F907F900895BF92CF92DF92EF92FF9268
:101880000F931F93CF93DF9300D000D01F92CDB75B
:10189000DEB795E0899FF0011124E759FD4F0181E2
:1018A000E8E00E9F800111240F571E4FF801B18010
:1018B000B11002C080E068C0E22ED42EAB01F82E39
:1018C000F801C0809E012F5F3F4F6C2D0E94890A56
:1018D000882381F387E992E00E949B086F2D70E0D6
:1018E00080E090E04AE00E94AD088FEA92E00E941A
:1018F0009B086D2D70E080E090E04AE00E94AD080A
:1019000087EB92E00E949B086B2D70E080E090E0F6
:101910004AE00E94AD0886EC92E00E949B086C2D84
:1019200070E080E090E04AE00E94AD088DEC92E02B
:101930000E949B088E2D90E0A0E0B0E04AE0BC0140
:10194000CD010E94AD086AE081EF93E00E945D0145
:10195000F801DD2041F0E11003C08481958105C0CC
:101960008681978102C0828193814D8150E0609190
:10197000F6057091F7056E597F4F2B813C81620F00
:10198000731F0E94C51E81E00F900F900F900F9063
:101990000F90DF91CF911F910F91FF90EF90DF900B
:1019A000CF90BF900895CF93DF93F999FECF80E059
:1019B00090E00E94BF1E8F3A974099F0C0E0D0E0BF
:1019C00060E0CE010E94CF1E2196C43881E0D80786
:1019D000B9F7F999FECF6FEA77E080E090E00E94D6
:1019E000DD1E809104068F778093040685E2809344
:1019F000060687E78093070680EF809308068091AC
:101A00000C06807F826080930C0680910B068E7F8F
:101A100080930B0680910A068F70806480930A067B
:101A200080910D0681608F7780930D0680910E0660
:101A300081608F7780930E0680910F068E7F8F775F
:101A400080930F068091160681608F77809316062B
:101A50008091170681608F77809317068091180612
:101A60008E7F8F7780931806809125068C7F81600A
:101A700080932506809130068C7F816080933006AC
:101A800086E3809326068093310680913B068C7F07
:101A900080933B06809146068C7F8160809346064A
:101AA00083E380933C0680934706809151068C7FA8
:101AB0008093510680915C068C7F816080935C06E8
:101AC00086E68093520680935D066091F6057091DC
:101AD000F7056E597F4F42E251E084E096E00E94A4
:101AE000C51E6091F6057091F7056E5F7F4F40E669
:101AF00050E088E994E00E94C51EF999FECF6091FC
:101B0000F6057091F7056E5F7F4F40E650E088E97B
:101B100094E00E94A71EDF91CF910C94380B843083
:101B200081F028F4823099F08330A1F00895883054
:101B3000A9F08930B9F08530D1F4809180008F7D93
:101B400003C0809180008F7780938000089584B5D2
:101B50008F7702C084B58F7D84BD08958091B000D9
:101B60008F7703C08091B0008F7D8093B00008957F
:101B70001F93CF93DF93282F30E0F901EB50FF4FF5
:101B80008491F901EB52FF4FD491F901E15EFE4FD0
:101B9000C491CC23C1F0162F81110E948F0DEC2F20
:101BA000F0E0EE0FFF1FE553FF4FA591B4919FB7F3
:101BB000F894111104C08C91D095D82302C0EC91F7
:101BC000DE2BDC939FBFDF91CF911F910895809111
:101BD000930480FF09C060E0809192040E94B80DD8
:101BE000809193048E7F08C061E0809192040E94EE
:101BF000B80D809193048160809393040895CF93EE
:101C0000DF93CEE8D4E06091F6057091F70542E0ED
:101C100050E083E892E00E94C51E0E94D30C60E071
:101C20008C810E94B80D1E821F8218861986109220
:101C3000930482E994E00E94840782E994E00E9480
:101C4000840782E994E0DF91CF910C948407CF93CD
:101C5000DF9390E0FC01EB52FF4F2491FC01E15E29
:101C6000FE4F8491882361F190E0880F991FFC0159
:101C7000EF53FF4FC591D491FC01E553FF4FA59160
:101C8000B491611109C09FB7F8948881209582238F
:101C90008883EC912E230BC0623061F49FB7F894D7
:101CA0008881322F309583238883EC912E2B2C93BF
:101CB0009FBF06C08FB7F894E8812E2B28838FBF73
:101CC000DF91CF910895CF92DF92EF92FF920F9321
:101CD0001F93CF93DF937C01D62FC42F690162E05D
:101CE000842F0E94270EF70116821582D086C782A4
:101CF0001287018783EA97E0948783879C2F9F70E0
:101D00008585807F892B858780818E7F8260808317
:101D1000868581608B7F877F8687C03218F0E0E000
:101D2000F0E002C0E8E6F0E09081C83030F0C03169
:101D300030F0C83130F081E005C082E003C088E0B7
:101D400001C084E0892B8083C83038F0C03140F076
:101D5000C83148F0ABE6B0E008C0ACE6B0E005C082
:101D6000A3E7B0E002C0ADE6B0E08C919C2F977085
:101D700021E030E002C0220F331F9A95E2F7822B58
:101D80008C93EC2FF0E0E15EFE4FE491E1508E2F5A
:101D900090E0FC01EE0FFF1FAF01495E5E4FFA01BC
:101DA00065917491FB0170816C91FC01E454FC4FCE
:101DB000672361ABFA0145915491FC01EE0FFF1FBF
:101DC000E454FC4F52A741A7AD2FAF705A2F529544
:101DD000507FF70145854F70452B4587B0E0AA0F2E
:101DE000BB1FA454BC4F5696FC92EE925597982F69
:101DF0008827820F931F12969C938E931197DF91E1
:101E0000CF911F910F91FF90EF90DF90CF900895A9
:101E10008F929F92AF92BF92CF92DF92EF92FF92FA
:101E20006B017C010E947D0F4B015C01C114D10448
:101E3000E104F104F1F00E947D0FDC01CB0188196F
:101E40009909AA09BB09883E9340A105B10570F321
:101E500021E0C21AD108E108F10888EE880E83E07B
:101E6000981EA11CB11CC114D104E104F10419F79E
:101E7000DDCFFF90EF90DF90CF90BF90AF909F901D
:101E80008F9008952C981E99FECF2C9A64E38EE8CB
:101E900094E00E94210863E070E080E090E00E94FE
:101EA000080F40EC68E38EE894E00E940F0886FB80
:101EB000882780F90895CF92DF92EF92FF926B010D
:101EC0007C018091B705811102C00E94420F81E020
:101ED0008093B7050E94A20FC60ED71EE81EF91EFA
:101EE000C092BE05D092BF05E092C005F092C10538
:101EF000FF90EF90DF90CF9008953FB7F8948091D6
:101F00002B0790912C07A0912D07B0912E0726B595
:101F1000A89B05C02F3F19F00196A11DB11D3FBF21
:101F2000BA2FA92F982F8827820F911DA11DB11DAF
:101F3000BC01CD0142E0660F771F881F991F4A95AB
:101F4000D1F708952FB7F89460912607709127076D
:101F500080912807909129072FBF08951F920F9213
:101F60000FB60F9211242F933F938F939F93AF93AC
:101F7000BF938091260790912707A0912807B091E1
:101F8000290730912A0723E0230F2D3720F40196EB
:101F9000A11DB11D05C026E8230F0296A11DB11D8C
:101FA00020932A078093260790932707A09328075A
:101FB000B093290780912B0790912C07A0912D07B2
:101FC000B0912E070196A11DB11D80932B07909310
:101FD0002C07A0932D07B0932E07BF91AF919F912F
:101FE0008F913F912F910F900FBE0F901F901895DA
:101FF000CF93DF93CDB7DEB729970FB6F894DEBF46
:102000000FBECDBF789484B5826084BD84B58160F5
:1020100084BD85B5826085BD85B5816085BD8091B3
:102020006E00816080936E0010928100809181002B
:102030008260809381008091810081608093810023
:10204000809180008160809380008091B1008460E5
:102050008093B1008091B00081608093B000809146
:102060007A00846080937A0080917A008260809305
:102070007A0080917A00816080937A0080917A0062
:10208000806880937A001092C10081EF93E00E94F3
:10209000A401E0910304F091040480818F7E808389
:1020A000E0910304F09104048081877F8083E091B4
:1020B0000304F091040480818F778083E09103040E
:1020C000F091040480818F7D808380910B04809344
:1020D0000A0410927A00809164008FEF809364006C
:1020E000809164008F7D80936400809164008D7F77
:1020F00080936400809164008B7F8093640061E032
:1021000084E00E94270E61E085E00E94270E60E0D7
:1021100086E00E94270E61E087E00E94270E60E0C3
:1021200082E00E94270E61E084E00E94B80D61E029
:1021300087E00E94B80D60E085E00E94B80D80E560
:102140008CBD2C9A8FE090E00197F1F72C9883E2F8
:1021500090E00197F1F72C9A8FE990E00197F1F761
:1021600060E38EE894E00E9421086AE070E080E07D
:1021700090E00E94080F0CE710E070EBE72E70E093
:10218000F72EF80131966491F80184910E94FD08C0
:102190000E5F1F4FE016F106A1F763E38EE894E0AF
:1021A0000E94210840EC65E38EE894E00E940F084D
:1021B000F82EF1E08F13F6CF60EC8EE30E94FD085D
:1021C00064E38EE894E00E9421086CE38EE894E0DA
:1021D0000E9421080E94D30C4EE8C42E44E0D42E65
:1021E0001092B605F092B70564E670E080E090E0EA
:1021F0000E94080F0E94CC091092920461E080E0D6
:102200000E94270E1092B605F092B7050E940F09A2
:1022100008E91AE328E833E14FE060E080E493E066
:102220000E94630E08E813E128EE33E04EE061E01F
:1022300083E593E00E94630E28EE33E048E062E01D
:1022400086E693E00E94630E61E08CE00E94270E18
:10225000F092EC02F092ED02D092F102C092F00204
:1022600002E112E01093EF020093EE0286E892E0A2
:102270009093F8028093F702E091220381E08E0FA1
:1022800080932203F0E0EE0FFF1FEE5DFC4F8EED1A
:1022900092E0928381838091F602807C83608093B8
:1022A000F6028091DE02807F86608093DE0260E02D
:1022B0008EED92E00E94AF04F0920703F0920803C3
:1022C000D0920C03C0920B0310930A0300930903EE
:1022D00080EF91E09093130380931203E091220327
:1022E00081E08E0F80932203F0E0EE0FFF1FEE5D82
:1022F000FC4F89EF92E09283818380911103807C6F
:102300008460809311038091F902807F86608093BE
:10231000F90260E089EF92E00E94AF0460E08FE193
:102320000E94270E80916B00816080936B008091EA
:102330006800816080936800F092D40290903C0520
:10234000992009F40FC343E050E064E271E083E4B4
:1023500095E00E945D1F892B21F481E08093B405F4
:1023600002C01092B40543E050E063E872E083E4F9
:1023700095E00E945D1F892B21F481E08093B505D3
:1023800002C01092B505F0903E05092D10E0F6FE52
:1023900013C080917A05806480937A05A8014F5F0D
:1023A0005F4F6CE375E088E795E00E945D1F892B25
:1023B00019F410923C05D6C2A8014F5F5F4F6CE341
:1023C00075E088E795E00E946A1F8091B405882334
:1023D00009F426C2F7FE29C2C0903F0521E0C212CF
:1023E00024C280914705813009F05DC010914605F7
:1023F000153008F05FC08091480590914905A09183
:102400004A05B0914B0589839A83AB83BC83BE0197
:102410006F5F7F4F812F0E942C0A8F3F39F4BE01DE
:102420006F5F7F4F812F0E94C40B01C080E09091AD
:102430004C05992321F020914B0592130EC088235F
:10244000C9F120E040E068E475E0812F0E943B0C78
:10245000F999FECF0E94380B2DC0882339F020E077
:1024600041E068E475E0812F0E943B0C80914C05AF
:102470008C83BE016F5F7F4F812F0E942C0A8F3F9C
:1024800079F4BE016F5F7F4F812F0E94C40B8823B8
:1024900039F021E041E068E475E0812F0E943B0CB7
:1024A000F999FECFD7CF823009F073C0109146055D
:1024B000153038F080913E0585FFB2C10E94670952
:1024C000AFC18091480590914905A0914A05B0910E
:1024D0004B0589839A83AB83BC83BE016F5F7F4FBB
:1024E000812F0E942C0A8F3FF1F0212F30E02150E4
:1024F000310996E0929FB001939F700D1124680FEF
:10250000711D660F771F660F771F6E5F7F4F80917B
:10251000F6059091F705680F791F44E050E083E8D5
:1025200092E00E94C51E80914C058C83BE016F5FB6
:102530007F4F812F0E942C0A8F3FF1F0212F30E036
:1025400021503109A6E0A29FB001A39F700D112474
:10255000680F711D660F771F660F771F6E5F7F4FC5
:102560008091F6059091F705680F791F44E050E0DF
:1025700083E892E00E94C51E6091F6057091F70510
:102580006E5F7F4F40E650E088E994E00E94A71E0E
:1025900091CF8330B9F480913D058093C40580913B
:1025A00046058093C8058091400590914105A09112
:1025B00042058093C5059093C605A093C705C092B8
:1025C000CE052DC0843071F580913D058093C40502
:1025D000809146058093C80580914C058093C9057C
:1025E0008091480590914905A0914A05B0914B050D
:1025F0008093CA059093CB05A093CC05B093CD05ED
:102600008091400590914105A09142058093C505B8
:102610009093C605A093C70582E08093CE05C09233
:10262000D005FEC08530E9F4809146058093C80549
:102630008091480590914905A0914A05B0914B05BC
:102640008093CA059093CB05A093CC05B093CD059C
:1026500080914C058093C905C092CF05F5FEE5C079
:102660002DCF863039F41092CF050E94380B0E948E
:102670000F0920CF883009F082C08091CF058823D0
:1026800009F4D3C08091C805909146058913CDC047
:10269000B5EF9B0E6091C905ADB6BEB69E012F5F2A
:1026A0003F4F4AEC55E00E94890A882309F456C03E
:1026B0008D81EDB7FEB7E81BF1090FB6F894FEBFA8
:1026C0000FBEEDBF2DB73EB72F5F3F4F7901898118
:1026D0006A81680FA90120E08617B0F434E0839F77
:1026E000F0011124E756FE4F70813181FA0190E02C
:1026F000391729F0A72FA90FA1939F5FF9CF430F97
:10270000511D230F8F5FE8CF222341F1812C8914C3
:1027100030F5082D10E04D8150E0F801E85BFA4FEC
:10272000608170E0C7010E94501F0097A1F0F8017E
:10273000E75BFA4F2091F6053091F7052E593F4F90
:102740004B815C81240F351F2E193F096081820F58
:10275000931F0E94CF1E83948394D9CFC12C0FB6B0
:10276000F894BEBE0FBEADBE80913E0585FF58C039
:1027700081E0C81609F4A2CE0E948A0951C08930AE
:10278000B9F4109202054BE050E063EB70E083E097
:1027900095E00E949E1E8BE0C82E92E0E92E95E007
:1027A000F92E00E415E020E140E860913D0524C0E9
:1027B0008A3039F54AE050E063EB70E088E495E058
:1027C0000E94911E892B89F541E150E060EB70E099
:1027D00082E095E00E949E1E6091340581E0860FA4
:1027E0008093340511E1C12E02E0E02E05E0F02EC9
:1027F00000E415E020E042EA8EE894E00E94F40450
:102800000FC08E3091F480E00E942609811108C02B
:1028100020E04FEF609146058EE894E00E94120799
:102820008091B405882309F4C4CD80913E0587FFCB
:1028300011C080913F05823019F4109235050AC00D
:10284000813141F480E00E9426098091B4058823FB
:1028500009F4AFCD80913E05803381F480913F052E
:10286000813109F0A6CD99E088E10FB6F894A895DA
:10287000809360000FBE90936000FFCF87FF99CDDB
:1028800080913F05823108F494CD8091400590916C
:102890004105A0914205B09143058E839F83A8878F
:1028A000B987809146058F70898744E050E063E8DE
:1028B00072E0CE0106960E945D1F892B09F479CD46
:1028C000B1E5AB2EB2E0BB2E00E010E0C12CD5018B
:1028D0006D905D01E12CF12C712C4801BAE08B0E5A
:1028E000911C6714B9F1C4018E0D9F1D44E050E0A6
:1028F000BE016A5F7F4F82579B4F0E945D1FE4E0DD
:10290000EE0EF11C892B21F5C3949E012F5F3F4FE2
:10291000AE014A5F5F4F63E08C2D0E94890A8823D5
:10292000E9F04D8150E06091F6057091F7056E5920
:102930007F4F8B819C81680F791FEC2DF0E0EE0FAB
:10294000FF1FE650FA4F808191810E94A71E06C0AA
:102950007394C7CFC394085E1F4FB9CF8C2D0E94CC
:10296000260927CD80913505882309F473C09091FD
:102970003605981708F44EC08090370590903805BA
:10298000A0903905B0903A050E94A20F681579050C
:102990008A059B0508F0A9C637C02C9A6AE38EE821
:1029A00094E00E94210865E38EE894E00E942108EB
:1029B00018EC40EC65E38EE894E00E940F088D303F
:1029C00009F0F3C60E94CC0988EF94E00E94AE099A
:1029D000809135058F5F809335050E94A20FDC0141
:1029E000CB0184549D4FAF4FBF4F809337059093D9
:1029F0003805A0933905B0933A0581E08093B70577
:102A00008091B6058111E2C6809135059091360519
:102A1000981760F4833070F41092350510923705E2
:102A2000109238051092390510923A0580913505BB
:102A3000981780F48090370590903805A09039055C
:102A4000B0903A050E94A20F681579058A059B058A
:102A500008F0DCC68091D005882309F437C1809145
:102A60003505811133C18091CE05813009F075C0E3
:102A70008091C805853008F067C08150682F70E0EC
:102A8000FB01EF5AFD4F508190911503591718F42F
:102A90001092150346C090911403891310921503E8
:102AA0008093140380E0B6E0B69F9001B79F300D8D
:102AB00011244091150391E0940F451728F5F90171
:102AC000E40FF11DEE0FFF1FEE0FFF1FDF01A257F6
:102AD000BB4F1A968D909D90AD90BC901D97909392
:102AE000150389288A288B2821F3A82FB0E0AD5F31
:102AF000BA4FE856FB4F94E001900D929A95E1F79A
:102B00008C5F8031B0F214C0E82FF0E0ED5FFA4F37
:102B100024E0DF011D922A95E9F7909315038C5F5D
:102B200039F48DE0E4ECF5E011928A95E9F7CEC036
:102B300091E0909302056091C405960F9093C405AF
:102B4000CC24C394C80EB6C08DE0A4ECB5E01D92B1
:102B50008A95E9F70E948A09B9C0823009F0B6C0A7
:102B60009091210380911C03981718F410921C0374
:102B7000D8CF6091C9058091C8050091CA05109110
:102B8000CB052091CC053091CD0590911B03891385
:102B900011C090911A0369130DC080901603909094
:102BA0001703A0901803B0901903081519052A05FA
:102BB0003B0511F010921C0380931B0360931A03D2
:102BC00000931603109317032093180330931903EF
:102BD00050901C03511010C02DE133E04AEC55E039
:102BE0000E94890A882309F4AFCF90911E03809137
:102BF0001D03890F80931E03C0901D0300E010E0A9
:102C000033E0E32E35E0F32E80911E03C81698F5CD
:102C1000083088F5B4E0CB9EF0011124E756FE4F52
:102C20006080A090F605B090F70522E6A20EB11CD8
:102C300082819381A80EB91E7180710E611A862D52
:102C4000810F1715B1F01F5F511668F40F5FD701A0
:102C50008C934701B2E08B0E911CC5010E94B71EF8
:102C6000F70181837401083020F4FFEFAF1ABF0A27
:102C7000E6CFC394C9CF10931C038091210318138E
:102C80000AC0083040F4D7011C9211961C921F5FB5
:102C900010931C030F5F000F09F443CF82E0809371
:102CA00002056091C40581E0860F8093C405CC24A1
:102CB000C394C00E22E0E22E25E0F22E05EC15E0D2
:102CC00020E140EA8EE894E00E94F4048091EF0550
:102CD000882309F4E4C0F0903505F110E0C01091AC
:102CE000E8050091D105E02FF0E0E05BFD4F808129
:102CF000181730F18091E90581111BC0C090E705DC
:102D00002091D2058091EA0585FF02C042EA01C008
:102D100042E86091340581E0860F8093340593ED9D
:102D2000E92E95E0F92E02EF15E08EE894E00E947E
:102D3000F4041092E8051092E9051092EF05AFC077
:102D40000530C8F4E12FF0E08FEF800FB6E0B89FB8
:102D5000E00DF11D1124EE0FFF1FEE0FFF1FE856CF
:102D6000FB4F80819181A281B3818E839F83A8874D
:102D7000B987FF24F39444E050E063E872E0CE01A9
:102D800006960E945D1F892B11F0F11004C01F5F91
:102D90001093E80584C09E012F5F3F4FAE014A5F4C
:102DA0005F4F64E0802F0E94890A882309F44CC099
:102DB0000DB71EB78D81EDB7FEB7E81BF1090FB651
:102DC000F894FEBF0FBEEDBF2DB73EB72F5F3F4F4C
:102DD000790199814A81490F9417A8F484E0989F5A
:102DE000F0011124E756FE4F70815181F90180E016
:102DF000581729F0672F680F61938F5FF9CF250F60
:102E0000311D9F5FE9CF4D8150E061E070E0C70167
:102E10000E94501F009789F02091F6053091F70528
:102E20002E593F4F4B815C81240F351F2E193F09CE
:102E3000820F931F0E94B71E01C080E00FB6F89466
:102E40001EBF0FBE0DBF01C080E080FB222420F812
:102E5000312CC10114E0880F991F1A95E1F74091B8
:102E6000EA05482BC090E7052091D2056091340512
:102E700081E0860F8093340503EDE02E05E0F02E0F
:102E80008E010A5F1F4F8EE894E00E94F40481E0F7
:102E90008093E9058091E8058F5F8093E805809134
:102EA000B605882309F4D8C08090BE059090BF0570
:102EB000A090C005B090C1050E94A20F68157905C9
:102EC0008A059B0508F4C8C0809135058111C4C0EE
:102ED0008091B605823009F041C08091B70581111B
:102EE00027C00E94420F8823A9F00E94A20F2091C0
:102EF000BA053091BB05DC01CB01820F931FA11DE8
:102F0000B11D8093BE059093BF05A093C005B093FB
:102F1000C1050AC00E94A20F6093BE057093BF0551
:102F20008093C0059093C10581E08093B70594C05C
:102F30008130A1F40E94EE081092B7050E94A20F02
:102F4000DC01CB0186509F4FAF4FBF4F8093BE0532
:102F50009093BF05A093C005B093C1058091B605BD
:102F6000833040F08091B705813021F40E94EE0853
:102F70001092B7058091B605823008F46DC080913B
:102F8000B705811169C060E0809192040E94B80D7C
:102F90001092940410929504109296041092970443
:102FA000109293048091B6059EEF980F923028F40A
:102FB0009091600090649093600010927A0020914C
:102FC00064009FEF9093640093B7916093BF8895DE
:102FD00093B79E7F93BF8250823028F48091600027
:102FE0008F7B80936000209364008091D5028130B4
:102FF000D9F41092D5028091260790912707A091CD
:103000002807B09129072091BC053091BD05820F9A
:10301000931FA11DB11D8093260790932707A093AE
:103020002807B093290708C06091BA057091BB05C5
:1030300080E090E00E945B0F809193048170846037
:10304000809393040E94A20F60939404709395045C
:1030500080939604909397048090940490909504A4
:10306000A0909604B090970481149104A104B10437
:10307000F9F00E94A20F681579058A059B05C0F03A
:1030800080919304982F9E7109F0CBC360E08091EA
:1030900092040E94B80D809193048E7F80939304D4
:1030A0001092940410929504109296041092970432
:1030B000B1EDEB2EB3E0FB2ED7010D911D917D01FB
:1030C0000115110509F472C1F801808180FF6EC1FC
:1030D00081809280A380B4800E94A20F6815790538
:1030E0008A059B0508F462C1D8019C911E968C91BB
:1030F0001E9791FFE8C080FF5EC082FF16C0199640
:103100008D919C911A971F968D909D90AD90BC903B
:103110005297880E991EA11CB11C0E94A20F68151F
:1031200079058A059B0508F02CC4F801868581FF86
:1031300012C08581968187849088A188B288880E84
:10314000991EA11CB11C0E94A20F681579058A0561
:103150009B0508F02AC4D8011E968C911E97982FC3
:10316000967019F49C919E7F9C9382FF0FC00E94E1
:10317000A20FF80121853285DC01CB01820F931F5C
:10318000A11DB11D81839283A383B483D8011E96B0
:103190008C9181FF0BC10E94A20FF801258136811D
:1031A000DC01CB01820F931FA11DB11D818392838E
:1031B000A383B483FBC083FF0EC0877FD8011E9614
:1031C0008C931E971D968C911D971B96ED91FC91EB
:1031D0001C9764E02EC081FF09C08D7FF8018687AF
:1031E00085850384F485E02D61E023C0D80117961E
:1031F0008D919C9118971F968D909D90AD90BC904D
:103200005297880E991EA11CB11C0E94A20F68152E
:1032100079058A059B0580F4F8018685826086879A
:1032200085819681892B41F485850384F485E02D81
:1032300060E082958F700995D8011E968C911E973B
:1032400081FF15C015968D919C911697892B79F069
:103250000E94A20FF80125813681DC01CB01820F8B
:10326000931FA11DB11D81839283A383B483D801D1
:103270001E968C9182FF0FC00E94A20FF80121853B
:103280003285DC01CB01820F931FA11DB11D81830B
:103290009283A383B4830E94A20FD8011F966D93DB
:1032A0007D938D939C9352978C9181FB222720F9DB
:1032B0001E969C911E9720FB90F91E969C931E973C
:1032C00081608C9373C080FF24C00E94A20FF8011C
:1032D0006787708B818B928B0E94A20FD801179603
:1032E0002D913C911897DC01CB01820F931FA11DFA
:1032F000B11DF80181839283A383B483808181FB14
:10330000222720F9968520FB90F99687816080839B
:103310004DC083FF19C08B7FD8011E968C930E94ED
:10332000A20FF80127813085DC01CB01820F931FAA
:10333000A11DB11D81839283A383B48385850384FA
:10334000F485E02D63E02FC082FF12C0877F8B7F62
:10335000D8011E968C931E97892F8E7F8C931D9675
:103360008C911D971B96ED91FC911C9765E01BC0FD
:1033700084608860F80186870E94A20FD8011796A2
:103380002D913C911897DC01CB01820F931FA11D59
:10339000B11DF80181839283A383B483858503845F
:1033A000F485E02D62E082958F70099525EE33E07B
:1033B0002E153F0509F080CE80912203882309F461
:1033C00089C0B12C80912203B81608F083C0EB2C81
:1033D000F12CEE0CFF1CF701EE5DFC4F0181128118
:1033E000D8011A964D905D906D907C901D97411478
:1033F000510461047104D9F10E94A20F641575058E
:1034000086059705A0F1D8011A961D921D921D926E
:103410001C921D978C91982F907F903309F0CAC20F
:103420008F70833049F061E0C8010E94AF04F80159
:103430008081807F83608083F80185818B3009F4EF
:10344000CAC2D80115968C911597883209F42DC3FC
:10345000D8016C91462F42954F706F7058968C91A1
:1034600058975096ED91FC9151978F730995F701FC
:10347000EE5DFC4F01811281F80144885588668811
:103480007788411451046104710411F10E94A20F64
:103490006415750586059705D8F0D8015296ED910B
:1034A000FC915397309779F0D8019C919D709130A1
:1034B00009F05AC348ECD80158966C916F7320E01C
:1034C000CF010E941207F801148A158A168A178AFA
:1034D000B39478CF0E94A20F00913C0310913D035A
:1034E00020913E0330913F03DC01CB01801B910B07
:1034F000A20BB30B813F9944A240B10508F454C01C
:103500000E94A20F60933C0370933D0380933E039F
:1035100090933F0343E050E063E872E082EF95E070
:103520000E945D1F892BC1F16091DA027091DB026C
:103530008091DC029091DD022CE43DE140E050E01E
:103540000E94141F109202051092030510920405A8
:103550001092050510920605109207053093080594
:103560002093090510920A0510920B0510920C0584
:103570006091340581E0860F809334058BE0C82E7E
:1035800092E0E92E95E0F92E02EF15E02EE540E8F5
:103590008EE894E00E94F4041092DA021092DB02AA
:1035A0001092DC021092DD020E94A20F00913803FB
:1035B0001091390320913A0330913B03DC01CB0198
:1035C000801B910BA20BB30B853F9140A105B10568
:1035D00008F487C0F8940E94A20F60933803709398
:1035E000390380933A0390933B034090D602509066
:1035F000D7026090D8027090D90211E031E54316ED
:1036000033EC53066104710408F410E01092D60202
:103610001092D7021092D8021092D90280913703EB
:10362000181709F45DC081E5481683EC580661045B
:10363000710418F083E090E002C086E090E02091F1
:10364000F902422F4F7050E084179507B9F18F703F
:10365000207F822B8093F9020E94A20F4B015C0114
:103660002091070330E0A8EEB3E00E94361F860EDB
:10367000971EA81EB91E2091080330E00E94361F35
:103680006B017C01672B682B692B39F00E943A1E75
:10369000A70196010E94E21E03C060E070E0CB012A
:1036A000860E971EA81EB91E80920D0390920E03DF
:1036B000A0920F03B09210031092FE0291E54916FA
:1036C00093EC59066104710410F440E001C048EC29
:1036D00020E064E08EE894E00E9412071093370324
:1036E00078940E94C6010C949E119091F90486E78B
:1036F00089278093F9042091FA0492E03091F8042C
:10370000E92FF0E0E850FB4F931730F484523081FA
:10371000832780839F5FF2CF808128272083E898CA
:1037200029ED30E0309301012093000110913B0519
:1037300066E38EE894E00E9421086AE38EE894E054
:103740000E9421086BE38EE894E00E942108112377
:1037500051F065E38EE894E00E94210868E671E08C
:1037600080E090E004C061E070E080E090E00E94C2
:10377000080F0091F8040F5F2C981E99FECF6FE799
:103780008EE894E00E94090858EFE52E54E0F52EEB
:1037900010E0101708F001C9D7016D917D018EE886
:1037A00094E00E9409081F5FF4CF40EC65E38EE8C7
:1037B00094E00E940F08833109F004C983E290E08D
:1037C0000197F1F7115009F0F4C8FCC88090BE05CC
:1037D0009090BF05A090C005B090C1050E94A20FB7
:1037E0008B019C018091BA059091BB05BC0180E0E2
:1037F00090E0060F171F281F391F80169106A2069A
:10380000B30608F001C90E945B0FFEC8109235058F
:1038100010923705109238051092390510923A052A
:1038200019C9923049F461E0809192040E94B80D68
:1038300080919304816032CC943059F40E94E70D5A
:103840000E94A20FDC01CB01885A9D4FAF4FBF4FA2
:103850000CC0963099F40E94E70D0E94A20FDC0183
:10386000CB01845D9E4FAF4FBF4F809394049093E4
:103870009504A0939604B09397041ACC983041F520
:10388000282F22952695277091E0920F9295990FF7
:10389000907E8F71892B8093930421110BC061E07E
:1038A000809192040E94B80D80919304816080936E
:1038B0009304D3CF8170809393040E94A20F6093EE
:1038C0009404709395048093960490939704F0CB9E
:1038D0009A3001F5282F22952695277091E0920FB6
:1038E0009295990F907E8F71892B8093930430E08D
:1038F000253031050CF4AFCF8170809393040E9482
:10390000A20F60939404709395048093960490930F
:103910009704A1CF9C3009F0CBCB82958695877018
:1039200090E004972CF0809193048F71809393041E
:103930000E94E70D0E94A20F30919304E32FE295BD
:10394000E695E77021E02E0F2295220F207E3F7131
:10395000232B20939304F0E0EE0FFF1FE45EFE4F55
:1039600020813181AB01BC01420F531F611D711DCC
:103970004093940450939504609396047093970435
:1039800097CBD8011E968C911E978B7F1E968C9399
:103990001E971D968C911D971B96ED91FC911C977F
:1039A00066E082958F700995C0CBF80186858D7F82
:1039B0008687D1CB903609F03FCD8F70863009F4E1
:1039C0003BCD60E0C8010E94AF04D8018C91807F9C
:1039D00086608C9331CD8081982F907F903101F556
:1039E0008F70806380830E94A20F2B013C01D8015D
:1039F00016962D913C9117972115310509F446C073
:103A0000B9016F7177276115710579F181E042E0A5
:103A1000E82FF0E0E617F70748F5440F8F5FF8CF7F
:103A2000903309F00ECD20853185232B09F409CD83
:103A30008F70806680830E94A20F2B013C01F801E9
:103A4000208531852115310509F1B9016F7177277D
:103A50006115710551F081E042E0E82FF0E0E617D2
:103A6000F70720F4440F8F5FF8CF41E055E036951B
:103A700027955A95E1F7A4E6B0E00E94361FA42FDF
:103A8000B0E09B01AC010E94011F03C060E070E048
:103A9000CB01DC01CB01840D951DA61DB71DF801DE
:103AA00082879387A487B587CCCC8C91982F907F01
:103AB000903151F48F7080638C930E94A20F2B0180
:103AC0003C01F801818121C0903399F4F801928181
:103AD0009F3F09F4BDCC8F7080648083992309F4E3
:103AE000B7CC0E94A20F2B013C01D80112968C91F9
:103AF0002FC09034C1F48F708066D8018C930E94DF
:103B0000A20F2B013C01F80183810E947504460E2F
:103B1000571E681E791ED8011A964D925D926D92BD
:103B20007C921D9795CC903609F092CCF801948147
:103B30009F3F09F48DCC8F7080618083992309F4B5
:103B400087CC0E94A20F2B013C01D80114968C91C6
:103B50000E947504460E571E681E791EF8014286A3
:103B600053866486758674CC40E0A5CCE1EFF3E023
:103B70001382128288EE93E0A0E0B0E08483958304
:103B8000A683B7838BE892E09183808385EC90E0F5
:103B90009587848784EC90E09787868780EC90E017
:103BA000918B808B81EC90E0938B828B82EC90E008
:103BB000958B848B86EC90E0978B868B118E128E82
:103BC000138E148E8FE391E09093C3058093C2050A
:103BD00086E091E09093F9058093F80508958F921F
:103BE0009F92AF92BF92CF92DF92EF92FF92CF93CC
:103BF000DF93EC01688179818A819B816115710570
:103C00008105910521F464E279ED8BE597E02DE1E2
:103C100033EF41E050E00E94E21E49015A019B014E
:103C2000AC01A7EAB1E40E94011F6B017C01ACEE7C
:103C3000B4EFA50194010E940F1FDC01CB018C0D94
:103C40009D1DAE1DBF1DB7FF03C00197A109B04860
:103C500088839983AA83BB83BC01CD019F77DF91C1
:103C6000CF91FF90EF90DF90CF90BF90AF909F905B
:103C70008F9008958F929F92AF92BF92CF92DF92D2
:103C8000EF92FF92609118017091190180911A01D1
:103C900090911B01611571058105910521F464E284
:103CA00079ED8BE597E02DE133EF41E050E00E94A4
:103CB000E21E49015A019B01AC01A7EAB1E40E944E
:103CC000011F6B017C01ACEEB4EFA50194010E94D1
:103CD0000F1FDC01CB018C0D9D1DAE1DBF1DB7FF5D
:103CE00003C00197A109B04880931801909319016E
:103CF000A0931A01B0931B01BC01CD019F77FF90E7
:103D0000EF90DF90CF90BF90AF909F908F900895ED
:103D1000609318017093190180931A0190931B010D
:103D20000895FB01DC0104C08D910590801921F4F8
:103D300041505040C8F7881B990B0895FB01DC01E6
:103D400002C005900D9241505040D8F70895DC0113
:103D5000CB01FC01F999FECF06C0F2BDE1BDF89A96
:103D6000319600B40D9241505040B8F70895F9993A
:103D7000FECF92BD81BDF89A992780B50895A8E13C
:103D8000B0E042E050E00C94A91EDC01CB0103C07E
:103D90002D910E94D01E41505040D0F70895262FFB
:103DA000F999FECF1FBA92BD81BD20BD0FB6F89420
:103DB000FA9AF99A0FBE019608950E94CF1E272FF6
:103DC0000C94D01E052E97FB1EF400940E94F91E41
:103DD00057FD07D00E94141F07FC03D04EF40C942B
:103DE000F91E50954095309521953F4F4F4F5F4FAD
:103DF000089590958095709561957F4F8F4F9F4F57
:103E000008950E94361FA59F900DB49F900DA49F0A
:103E1000800D911D11240895B7FF0C94011F0E947D
:103E2000011F821B930B0895A1E21A2EAA1BBB1B34
:103E3000FD010DC0AA1FBB1FEE1FFF1FA217B30776
:103E4000E407F50720F0A21BB30BE40BF50B661F8C
:103E5000771F881F991F1A9469F760957095809550
:103E600090959B01AC01BD01CF010895A29FB001C7
:103E7000B39FC001A39F700D811D1124911DB29F9E
:103E8000700D811D1124911D0895EE0FFF1F0590E7
:103E9000F491E02D099481E090E0F8940C94731F64
:103EA000FC014150504030F001900616D1F7319797
:103EB000CF010895882799270895FB01DC0104C0EC
:103EC0008D910190801921F441505040C8F7881B12
:103ED000990B0895FB01DC0102C001900D92415045
:0A3EE0005040D8F70895F894FFCF82
:103EEA00D900000000008003860389038A038D033A
:103EFA008E038F03A503A603010000003200C80049
:103F0A003200E8036EF2FE01000A00320064005833
:103F1A0002B80B7017A08CFFFFFFFFFFFF00010024
:103F2A0000326400FF00FF0114630000326400FFE6
:103F3A0000FF2114630000326400FF00FF01646681
:103F4A000000326400FF00FF216466000032640052
:103F5A00FF00FF0113330000326400FF00FF21134A
:103F6A003303163F0155016B0100000000000000F9
:103F7A000004013E013E013E01020100000501016B
:103F8A00000A0302001201050004010600080207E4
:103F9A00000101090001010A0001010B0001010CE5
:103FAA000001010D0001010E0004010F00080210BA
:103FBA0000010112000101130001011400010115A1
:103FCA0000010116000101170008011800020B196F
:103FDA0000820B2400020B2F00820B3A00020B45D1
:103FEA0000820B5000020B5B00820B6600020B7111
:103FFA0000820B7C00020B8700820B920008019D55
:10400A0000020B9E00820BA900020BB400820BBFB8
:10401A0000020BCA00820BD500020BE000820BEBF8
:10402A0000020B0101820B0C01020B1701820B2209
:10403A00010606060201010103020601000401004D
:10404A00000002010201040106050100000000024D
:10405A0006000400020F000C0000180014000021E2
:10406A00001C0000000000000000005D01DA0026CC
:10407A000104011801A4016C6F61644465666175ED
:10408A006C745265677365743A20636E6C3D0020E8
:10409A006475616C3A2000207265674368616E5FDF
:1040AA006C656E3A2000206C73743A2000206964B3
:0440BA00783A200030
:00000001FF
